:020000040000FA
:020000000328D3
:040002000034003492
:0A00060007309F0003138316023039
:100010008600831200000610202000000614202015
:100020000610482033200330B900B90B15280614F8
:10003000482033200230B900B90B1C2800000B28DF
:100040001B30B6000000000000000000000032304D
:10005000B70000003C30B800B80B2C28B70B29289B
:10006000B60B22280800000000003630B300000064
:1000700000000000000000003230B40000003C30FE
:10008000B500B50B4128B40B3E28B30B3728080048
:100090006430B000000000000000000000003630B6
:1000A000B10000000000000000003B30B200B20BC5
:1000B0005728B10B5128B00B4A281E30B100B10BA4
:0400C0005F280800AD
:02400E00193F58
:00000001FF
